{
  "_format": "hh-sol-artifact-1",
  "contractName": "FiredGuys",
  "sourceName": "contracts/MyNFT.sol",
  "abi": [
    {
      "inputs": [],
      "stateMutability": "nonpayable",
      "type": "constructor"
    },
    {
      "anonymous": false,
      "inputs": [
        {
          "indexed": true,
          "internalType": "address",
          "name": "owner",
          "type": "address"
        },
        {
          "indexed": true,
          "internalType": "address",
          "name": "approved",
          "type": "address"
        },
        {
          "indexed": true,
          "internalType": "uint256",
          "name": "tokenId",
          "type": "uint256"
        }
      ],
      "name": "Approval",
      "type": "event"
    },
    {
      "anonymous": false,
      "inputs": [
        {
          "indexed": true,
          "internalType": "address",
          "name": "owner",
          "type": "address"
        },
        {
          "indexed": true,
          "internalType": "address",
          "name": "operator",
          "type": "address"
        },
        {
          "indexed": false,
          "internalType": "bool",
          "name": "approved",
          "type": "bool"
        }
      ],
      "name": "ApprovalForAll",
      "type": "event"
    },
    {
      "anonymous": false,
      "inputs": [
        {
          "indexed": true,
          "internalType": "address",
          "name": "previousOwner",
          "type": "address"
        },
        {
          "indexed": true,
          "internalType": "address",
          "name": "newOwner",
          "type": "address"
        }
      ],
      "name": "OwnershipTransferred",
      "type": "event"
    },
    {
      "anonymous": false,
      "inputs": [
        {
          "indexed": true,
          "internalType": "address",
          "name": "from",
          "type": "address"
        },
        {
          "indexed": true,
          "internalType": "address",
          "name": "to",
          "type": "address"
        },
        {
          "indexed": true,
          "internalType": "uint256",
          "name": "tokenId",
          "type": "uint256"
        }
      ],
      "name": "Transfer",
      "type": "event"
    },
    {
      "inputs": [
        {
          "internalType": "address",
          "name": "to",
          "type": "address"
        },
        {
          "internalType": "uint256",
          "name": "tokenId",
          "type": "uint256"
        }
      ],
      "name": "approve",
      "outputs": [],
      "stateMutability": "nonpayable",
      "type": "function"
    },
    {
      "inputs": [
        {
          "internalType": "address",
          "name": "owner",
          "type": "address"
        }
      ],
      "name": "balanceOf",
      "outputs": [
        {
          "internalType": "uint256",
          "name": "",
          "type": "uint256"
        }
      ],
      "stateMutability": "view",
      "type": "function"
    },
    {
      "inputs": [],
      "name": "count",
      "outputs": [
        {
          "internalType": "uint256",
          "name": "",
          "type": "uint256"
        }
      ],
      "stateMutability": "view",
      "type": "function"
    },
    {
      "inputs": [
        {
          "internalType": "uint256",
          "name": "tokenId",
          "type": "uint256"
        }
      ],
      "name": "getApproved",
      "outputs": [
        {
          "internalType": "address",
          "name": "",
          "type": "address"
        }
      ],
      "stateMutability": "view",
      "type": "function"
    },
    {
      "inputs": [
        {
          "internalType": "address",
          "name": "owner",
          "type": "address"
        },
        {
          "internalType": "address",
          "name": "operator",
          "type": "address"
        }
      ],
      "name": "isApprovedForAll",
      "outputs": [
        {
          "internalType": "bool",
          "name": "",
          "type": "bool"
        }
      ],
      "stateMutability": "view",
      "type": "function"
    },
    {
      "inputs": [
        {
          "internalType": "string",
          "name": "uri",
          "type": "string"
        }
      ],
      "name": "isContentOwned",
      "outputs": [
        {
          "internalType": "bool",
          "name": "",
          "type": "bool"
        }
      ],
      "stateMutability": "view",
      "type": "function"
    },
    {
      "inputs": [],
      "name": "name",
      "outputs": [
        {
          "internalType": "string",
          "name": "",
          "type": "string"
        }
      ],
      "stateMutability": "view",
      "type": "function"
    },
    {
      "inputs": [],
      "name": "owner",
      "outputs": [
        {
          "internalType": "address",
          "name": "",
          "type": "address"
        }
      ],
      "stateMutability": "view",
      "type": "function"
    },
    {
      "inputs": [
        {
          "internalType": "uint256",
          "name": "tokenId",
          "type": "uint256"
        }
      ],
      "name": "ownerOf",
      "outputs": [
        {
          "internalType": "address",
          "name": "",
          "type": "address"
        }
      ],
      "stateMutability": "view",
      "type": "function"
    },
    {
      "inputs": [
        {
          "internalType": "address",
          "name": "recipient",
          "type": "address"
        },
        {
          "internalType": "string",
          "name": "metadataURI",
          "type": "string"
        }
      ],
      "name": "payToMint",
      "outputs": [
        {
          "internalType": "uint256",
          "name": "",
          "type": "uint256"
        }
      ],
      "stateMutability": "payable",
      "type": "function"
    },
    {
      "inputs": [],
      "name": "renounceOwnership",
      "outputs": [],
      "stateMutability": "nonpayable",
      "type": "function"
    },
    {
      "inputs": [
        {
          "internalType": "address",
          "name": "to",
          "type": "address"
        },
        {
          "internalType": "string",
          "name": "uri",
          "type": "string"
        }
      ],
      "name": "safeMint",
      "outputs": [],
      "stateMutability": "nonpayable",
      "type": "function"
    },
    {
      "inputs": [
        {
          "internalType": "address",
          "name": "from",
          "type": "address"
        },
        {
          "internalType": "address",
          "name": "to",
          "type": "address"
        },
        {
          "internalType": "uint256",
          "name": "tokenId",
          "type": "uint256"
        }
      ],
      "name": "safeTransferFrom",
      "outputs": [],
      "stateMutability": "nonpayable",
      "type": "function"
    },
    {
      "inputs": [
        {
          "internalType": "address",
          "name": "from",
          "type": "address"
        },
        {
          "internalType": "address",
          "name": "to",
          "type": "address"
        },
        {
          "internalType": "uint256",
          "name": "tokenId",
          "type": "uint256"
        },
        {
          "internalType": "bytes",
          "name": "data",
          "type": "bytes"
        }
      ],
      "name": "safeTransferFrom",
      "outputs": [],
      "stateMutability": "nonpayable",
      "type": "function"
    },
    {
      "inputs": [
        {
          "internalType": "address",
          "name": "operator",
          "type": "address"
        },
        {
          "internalType": "bool",
          "name": "approved",
          "type": "bool"
        }
      ],
      "name": "setApprovalForAll",
      "outputs": [],
      "stateMutability": "nonpayable",
      "type": "function"
    },
    {
      "inputs": [
        {
          "internalType": "bytes4",
          "name": "interfaceId",
          "type": "bytes4"
        }
      ],
      "name": "supportsInterface",
      "outputs": [
        {
          "internalType": "bool",
          "name": "",
          "type": "bool"
        }
      ],
      "stateMutability": "view",
      "type": "function"
    },
    {
      "inputs": [],
      "name": "symbol",
      "outputs": [
        {
          "internalType": "string",
          "name": "",
          "type": "string"
        }
      ],
      "stateMutability": "view",
      "type": "function"
    },
    {
      "inputs": [
        {
          "internalType": "uint256",
          "name": "tokenId",
          "type": "uint256"
        }
      ],
      "name": "tokenURI",
      "outputs": [
        {
          "internalType": "string",
          "name": "",
          "type": "string"
        }
      ],
      "stateMutability": "view",
      "type": "function"
    },
    {
      "inputs": [
        {
          "internalType": "address",
          "name": "from",
          "type": "address"
        },
        {
          "internalType": "address",
          "name": "to",
          "type": "address"
        },
        {
          "internalType": "uint256",
          "name": "tokenId",
          "type": "uint256"
        }
      ],
      "name": "transferFrom",
      "outputs": [],
      "stateMutability": "nonpayable",
      "type": "function"
    },
    {
      "inputs": [
        {
          "internalType": "address",
          "name": "newOwner",
          "type": "address"
        }
      ],
      "name": "transferOwnership",
      "outputs": [],
      "stateMutability": "nonpayable",
      "type": "function"
    }
  ],
  "bytecode": "0x60806040523480156200001157600080fd5b506040518060400160405280600981526020017f46697265644775797300000000000000000000000000000000000000000000008152506040518060400160405280600381526020017f4d544b0000000000000000000000000000000000000000000000000000000000815250816000908051906020019062000096929190620001a6565b508060019080519060200190620000af929190620001a6565b505050620000d2620000c6620000d860201b60201c565b620000e060201b60201c565b620002bb565b600033905090565b6000600760009054906101000a900473ffffffffffffffffffffffffffffffffffffffff16905081600760006101000a81548173ffffffffffffffffffffffffffffffffffffffff021916908373ffffffffffffffffffffffffffffffffffffffff1602179055508173ffffffffffffffffffffffffffffffffffffffff168173ffffffffffffffffffffffffffffffffffffffff167f8be0079c531659141344cd1fd0a4f28419497f9722a3daafe3b4186f6b6457e060405160405180910390a35050565b828054620001b49062000256565b90600052602060002090601f016020900481019282620001d8576000855562000224565b82601f10620001f357805160ff191683800117855562000224565b8280016001018555821562000224579182015b828111156200022357825182559160200191906001019062000206565b5b50905062000233919062000237565b5090565b5b808211156200025257600081600090555060010162000238565b5090565b600060028204905060018216806200026f57607f821691505b602082108114156200028657620002856200028c565b5b50919050565b7f4e487b7100000000000000000000000000000000000000000000000000000000600052602260045260246000fd5b6130a980620002cb6000396000f3fe60806040526004361061011f5760003560e01c8063715018a6116100a0578063b88d4fde11610064578063b88d4fde146103ec578063c87b56dd14610415578063d204c45e14610452578063e985e9c51461047b578063f2fde38b146104b85761011f565b8063715018a6146103195780638da5cb5b1461033057806395d89b411461035b5780639f1cabc614610386578063a22cb465146103c35761011f565b806323b872dd116100e757806323b872dd1461021d57806342842e0e14610246578063615fd9e21461026f5780636352211e1461029f57806370a08231146102dc5761011f565b806301ffc9a71461012457806306661abd1461016157806306fdde031461018c578063081812fc146101b7578063095ea7b3146101f4575b600080fd5b34801561013057600080fd5b5061014b60048036038101906101469190612196565b6104e1565b60405161015891906125f4565b60405180910390f35b34801561016d57600080fd5b506101766105c3565b6040516101839190612831565b60405180910390f35b34801561019857600080fd5b506101a16105d4565b6040516101ae919061260f565b60405180910390f35b3480156101c357600080fd5b506101de60048036038101906101d99190612229565b610666565b6040516101eb919061258d565b60405180910390f35b34801561020057600080fd5b5061021b6004803603810190610216919061215a565b6106ac565b005b34801561022957600080fd5b50610244600480360381019061023f9190612000565b6107c4565b005b34801561025257600080fd5b5061026d60048036038101906102689190612000565b610824565b005b61028960048036038101906102849190612106565b610844565b6040516102969190612831565b60405180910390f35b3480156102ab57600080fd5b506102c660048036038101906102c19190612229565b610970565b6040516102d3919061258d565b60405180910390f35b3480156102e857600080fd5b5061030360048036038101906102fe9190611f9b565b610a22565b6040516103109190612831565b60405180910390f35b34801561032557600080fd5b5061032e610ada565b005b34801561033c57600080fd5b50610345610aee565b604051610352919061258d565b60405180910390f35b34801561036757600080fd5b50610370610b18565b60405161037d919061260f565b60405180910390f35b34801561039257600080fd5b506103ad60048036038101906103a891906121e8565b610baa565b6040516103ba91906125f4565b60405180910390f35b3480156103cf57600080fd5b506103ea60048036038101906103e591906120ca565b610be5565b005b3480156103f857600080fd5b50610413600480360381019061040e919061204f565b610bfb565b005b34801561042157600080fd5b5061043c60048036038101906104379190612229565b610c5d565b604051610449919061260f565b60405180910390f35b34801561045e57600080fd5b5061047960048036038101906104749190612106565b610c6f565b005b34801561048757600080fd5b506104a2600480360381019061049d9190611fc4565b610ca8565b6040516104af91906125f4565b60405180910390f35b3480156104c457600080fd5b506104df60048036038101906104da9190611f9b565b610d3c565b005b60007f80ac58cd000000000000000000000000000000000000000000000000000000007bffffffffffffffffffffffffffffffffffffffffffffffffffffffff1916827bffffffffffffffffffffffffffffffffffffffffffffffffffffffff191614806105ac57507f5b5e139f000000000000000000000000000000000000000000000000000000007bffffffffffffffffffffffffffffffffffffffffffffffffffffffff1916827bffffffffffffffffffffffffffffffffffffffffffffffffffffffff1916145b806105bc57506105bb82610dc0565b5b9050919050565b60006105cf6008610e2a565b905090565b6060600080546105e390612a87565b80601f016020809104026020016040519081016040528092919081815260200182805461060f90612a87565b801561065c5780601f106106315761010080835404028352916020019161065c565b820191906000526020600020905b81548152906001019060200180831161063f57829003601f168201915b5050505050905090565b600061067182610e38565b6004600083815260200190815260200160002060009054906101000a900473ffffffffffffffffffffffffffffffffffffffff169050919050565b60006106b782610970565b90508073ffffffffffffffffffffffffffffffffffffffff168373ffffffffffffffffffffffffffffffffffffffff161415610728576040517f08c379a000000000000000000000000000000000000000000000000000000000815260040161071f906127b1565b60405180910390fd5b8073ffffffffffffffffffffffffffffffffffffffff16610747610e83565b73ffffffffffffffffffffffffffffffffffffffff161480610776575061077581610770610e83565b610ca8565b5b6107b5576040517f08c379a00000000000000000000000000000000000000000000000000000000081526004016107ac90612731565b60405180910390fd5b6107bf8383610e8b565b505050565b6107d56107cf610e83565b82610f44565b610814576040517f08c379a000000000000000000000000000000000000000000000000000000000815260040161080b906127f1565b60405180910390fd5b61081f838383610fd9565b505050565b61083f83838360405180602001604052806000815250610bfb565b505050565b600060016009836040516108589190612552565b908152602001604051809103902060009054906101000a900460ff1660ff1614156108b8576040517f08c379a00000000000000000000000000000000000000000000000000000000081526004016108af906127d1565b60405180910390fd5b662386f26fc10000341015610902576040517f08c379a00000000000000000000000000000000000000000000000000000000081526004016108f990612811565b60405180910390fd5b600061090e6008610e2a565b905061091a6008611240565b600160098460405161092c9190612552565b908152602001604051809103902060006101000a81548160ff021916908360ff16021790555061095c8482611256565b6109668184611430565b8091505092915050565b6000806002600084815260200190815260200160002060009054906101000a900473ffffffffffffffffffffffffffffffffffffffff169050600073ffffffffffffffffffffffffffffffffffffffff168173ffffffffffffffffffffffffffffffffffffffff161415610a19576040517f08c379a0000000000000000000000000000000000000000000000000000000008152600401610a1090612791565b60405180910390fd5b80915050919050565b60008073ffffffffffffffffffffffffffffffffffffffff168273ffffffffffffffffffffffffffffffffffffffff161415610a93576040517f08c379a0000000000000000000000000000000000000000000000000000000008152600401610a8a906126f1565b60405180910390fd5b600360008373ffffffffffffffffffffffffffffffffffffffff1673ffffffffffffffffffffffffffffffffffffffff168152602001908152602001600020549050919050565b610ae26114a4565b610aec6000611522565b565b6000600760009054906101000a900473ffffffffffffffffffffffffffffffffffffffff16905090565b606060018054610b2790612a87565b80601f0160208091040260200160405190810160405280929190818152602001828054610b5390612a87565b8015610ba05780601f10610b7557610100808354040283529160200191610ba0565b820191906000526020600020905b815481529060010190602001808311610b8357829003601f168201915b5050505050905090565b60006001600983604051610bbe9190612552565b908152602001604051809103902060009054906101000a900460ff1660ff16149050919050565b610bf7610bf0610e83565b83836115e8565b5050565b610c0c610c06610e83565b83610f44565b610c4b576040517f08c379a0000000000000000000000000000000000000000000000000000000008152600401610c42906127f1565b60405180910390fd5b610c5784848484611755565b50505050565b6060610c68826117b1565b9050919050565b610c776114a4565b6000610c836008610e2a565b9050610c8f6008611240565b610c9983826118c4565b610ca38183611430565b505050565b6000600560008473ffffffffffffffffffffffffffffffffffffffff1673ffffffffffffffffffffffffffffffffffffffff16815260200190815260200160002060008373ffffffffffffffffffffffffffffffffffffffff1673ffffffffffffffffffffffffffffffffffffffff16815260200190815260200160002060009054906101000a900460ff16905092915050565b610d446114a4565b600073ffffffffffffffffffffffffffffffffffffffff168173ffffffffffffffffffffffffffffffffffffffff161415610db4576040517f08c379a0000000000000000000000000000000000000000000000000000000008152600401610dab90612651565b60405180910390fd5b610dbd81611522565b50565b60007f01ffc9a7000000000000000000000000000000000000000000000000000000007bffffffffffffffffffffffffffffffffffffffffffffffffffffffff1916827bffffffffffffffffffffffffffffffffffffffffffffffffffffffff1916149050919050565b600081600001549050919050565b610e41816118e2565b610e80576040517f08c379a0000000000000000000000000000000000000000000000000000000008152600401610e7790612791565b60405180910390fd5b50565b600033905090565b816004600083815260200190815260200160002060006101000a81548173ffffffffffffffffffffffffffffffffffffffff021916908373ffffffffffffffffffffffffffffffffffffffff160217905550808273ffffffffffffffffffffffffffffffffffffffff16610efe83610970565b73ffffffffffffffffffffffffffffffffffffffff167f8c5be1e5ebec7d5bd14f71427d1e84f3dd0314c0f7b2291e5b200ac8c7c3b92560405160405180910390a45050565b600080610f5083610970565b90508073ffffffffffffffffffffffffffffffffffffffff168473ffffffffffffffffffffffffffffffffffffffff161480610f925750610f918185610ca8565b5b80610fd057508373ffffffffffffffffffffffffffffffffffffffff16610fb884610666565b73ffffffffffffffffffffffffffffffffffffffff16145b91505092915050565b8273ffffffffffffffffffffffffffffffffffffffff16610ff982610970565b73ffffffffffffffffffffffffffffffffffffffff161461104f576040517f08c379a000000000000000000000000000000000000000000000000000000000815260040161104690612671565b60405180910390fd5b600073ffffffffffffffffffffffffffffffffffffffff168273ffffffffffffffffffffffffffffffffffffffff1614156110bf576040517f08c379a00000000000000000000000000000000000000000000000000000000081526004016110b6906126b1565b60405180910390fd5b6110ca83838361194e565b6110d5600082610e8b565b6001600360008573ffffffffffffffffffffffffffffffffffffffff1673ffffffffffffffffffffffffffffffffffffffff1681526020019081526020016000206000828254611125919061299d565b925050819055506001600360008473ffffffffffffffffffffffffffffffffffffffff1673ffffffffffffffffffffffffffffffffffffffff168152602001908152602001600020600082825461117c9190612916565b92505081905550816002600083815260200190815260200160002060006101000a81548173ffffffffffffffffffffffffffffffffffffffff021916908373ffffffffffffffffffffffffffffffffffffffff160217905550808273ffffffffffffffffffffffffffffffffffffffff168473ffffffffffffffffffffffffffffffffffffffff167fddf252ad1be2c89b69c2b068fc378daa952ba7f163c4a11628f55a4df523b3ef60405160405180910390a461123b838383611953565b505050565b6001816000016000828254019250508190555050565b600073ffffffffffffffffffffffffffffffffffffffff168273ffffffffffffffffffffffffffffffffffffffff1614156112c6576040517f08c379a00000000000000000000000000000000000000000000000000000000081526004016112bd90612751565b60405180910390fd5b6112cf816118e2565b1561130f576040517f08c379a000000000000000000000000000000000000000000000000000000000815260040161130690612691565b60405180910390fd5b61131b6000838361194e565b6001600360008473ffffffffffffffffffffffffffffffffffffffff1673ffffffffffffffffffffffffffffffffffffffff168152602001908152602001600020600082825461136b9190612916565b92505081905550816002600083815260200190815260200160002060006101000a81548173ffffffffffffffffffffffffffffffffffffffff021916908373ffffffffffffffffffffffffffffffffffffffff160217905550808273ffffffffffffffffffffffffffffffffffffffff16600073ffffffffffffffffffffffffffffffffffffffff167fddf252ad1be2c89b69c2b068fc378daa952ba7f163c4a11628f55a4df523b3ef60405160405180910390a461142c60008383611953565b5050565b611439826118e2565b611478576040517f08c379a000000000000000000000000000000000000000000000000000000000815260040161146f90612711565b60405180910390fd5b8060066000848152602001908152602001600020908051906020019061149f929190611dbf565b505050565b6114ac610e83565b73ffffffffffffffffffffffffffffffffffffffff166114ca610aee565b73ffffffffffffffffffffffffffffffffffffffff1614611520576040517f08c379a000000000000000000000000000000000000000000000000000000000815260040161151790612771565b60405180910390fd5b565b6000600760009054906101000a900473ffffffffffffffffffffffffffffffffffffffff16905081600760006101000a81548173ffffffffffffffffffffffffffffffffffffffff021916908373ffffffffffffffffffffffffffffffffffffffff1602179055508173ffffffffffffffffffffffffffffffffffffffff168173ffffffffffffffffffffffffffffffffffffffff167f8be0079c531659141344cd1fd0a4f28419497f9722a3daafe3b4186f6b6457e060405160405180910390a35050565b8173ffffffffffffffffffffffffffffffffffffffff168373ffffffffffffffffffffffffffffffffffffffff161415611657576040517f08c379a000000000000000000000000000000000000000000000000000000000815260040161164e906126d1565b60405180910390fd5b80600560008573ffffffffffffffffffffffffffffffffffffffff1673ffffffffffffffffffffffffffffffffffffffff16815260200190815260200160002060008473ffffffffffffffffffffffffffffffffffffffff1673ffffffffffffffffffffffffffffffffffffffff16815260200190815260200160002060006101000a81548160ff0219169083151502179055508173ffffffffffffffffffffffffffffffffffffffff168373ffffffffffffffffffffffffffffffffffffffff167f17307eab39ab6107e8899845ad3d59bd9653f200f220920489ca2b5937696c318360405161174891906125f4565b60405180910390a3505050565b611760848484610fd9565b61176c84848484611958565b6117ab576040517f08c379a00000000000000000000000000000000000000000000000000000000081526004016117a290612631565b60405180910390fd5b50505050565b60606117bc82610e38565b60006006600084815260200190815260200160002080546117dc90612a87565b80601f016020809104026020016040519081016040528092919081815260200182805461180890612a87565b80156118555780601f1061182a57610100808354040283529160200191611855565b820191906000526020600020905b81548152906001019060200180831161183857829003601f168201915b505050505090506000611866611aef565b905060008151141561187c5781925050506118bf565b6000825111156118b1578082604051602001611899929190612569565b604051602081830303815290604052925050506118bf565b6118ba84611b2c565b925050505b919050565b6118de828260405180602001604052806000815250611b94565b5050565b60008073ffffffffffffffffffffffffffffffffffffffff166002600084815260200190815260200160002060009054906101000a900473ffffffffffffffffffffffffffffffffffffffff1673ffffffffffffffffffffffffffffffffffffffff1614159050919050565b505050565b505050565b60006119798473ffffffffffffffffffffffffffffffffffffffff16611bef565b15611ae2578373ffffffffffffffffffffffffffffffffffffffff1663150b7a026119a2610e83565b8786866040518563ffffffff1660e01b81526004016119c494939291906125a8565b602060405180830381600087803b1580156119de57600080fd5b505af1925050508015611a0f57506040513d601f19601f82011682018060405250810190611a0c91906121bf565b60015b611a92573d8060008114611a3f576040519150601f19603f3d011682016040523d82523d6000602084013e611a44565b606091505b50600081511415611a8a576040517f08c379a0000000000000000000000000000000000000000000000000000000008152600401611a8190612631565b60405180910390fd5b805181602001fd5b63150b7a0260e01b7bffffffffffffffffffffffffffffffffffffffffffffffffffffffff1916817bffffffffffffffffffffffffffffffffffffffffffffffffffffffff191614915050611ae7565b600190505b949350505050565b60606040518060400160405280600781526020017f697066733a2f2f00000000000000000000000000000000000000000000000000815250905090565b6060611b3782610e38565b6000611b41611aef565b90506000815111611b615760405180602001604052806000815250611b8c565b80611b6b84611c12565b604051602001611b7c929190612569565b6040516020818303038152906040525b915050919050565b611b9e8383611256565b611bab6000848484611958565b611bea576040517f08c379a0000000000000000000000000000000000000000000000000000000008152600401611be190612631565b60405180910390fd5b505050565b6000808273ffffffffffffffffffffffffffffffffffffffff163b119050919050565b60606000821415611c5a576040518060400160405280600181526020017f30000000000000000000000000000000000000000000000000000000000000008152509050611dba565b600082905060005b60008214611c8c578080611c7590612aea565b915050600a82611c85919061296c565b9150611c62565b60008167ffffffffffffffff811115611cce577f4e487b7100000000000000000000000000000000000000000000000000000000600052604160045260246000fd5b6040519080825280601f01601f191660200182016040528015611d005781602001600182028036833780820191505090505b5090505b60008514611db357600182611d19919061299d565b9150600a85611d289190612b33565b6030611d349190612916565b60f81b818381518110611d70577f4e487b7100000000000000000000000000000000000000000000000000000000600052603260045260246000fd5b60200101907effffffffffffffffffffffffffffffffffffffffffffffffffffffffffffff1916908160001a905350600a85611dac919061296c565b9450611d04565b8093505050505b919050565b828054611dcb90612a87565b90600052602060002090601f016020900481019282611ded5760008555611e34565b82601f10611e0657805160ff1916838001178555611e34565b82800160010185558215611e34579182015b82811115611e33578251825591602001919060010190611e18565b5b509050611e419190611e45565b5090565b5b80821115611e5e576000816000905550600101611e46565b5090565b6000611e75611e7084612871565b61284c565b905082815260208101848484011115611e8d57600080fd5b611e98848285612a45565b509392505050565b6000611eb3611eae846128a2565b61284c565b905082815260208101848484011115611ecb57600080fd5b611ed6848285612a45565b509392505050565b600081359050611eed81613017565b92915050565b600081359050611f028161302e565b92915050565b600081359050611f1781613045565b92915050565b600081519050611f2c81613045565b92915050565b600082601f830112611f4357600080fd5b8135611f53848260208601611e62565b91505092915050565b600082601f830112611f6d57600080fd5b8135611f7d848260208601611ea0565b91505092915050565b600081359050611f958161305c565b92915050565b600060208284031215611fad57600080fd5b6000611fbb84828501611ede565b91505092915050565b60008060408385031215611fd757600080fd5b6000611fe585828601611ede565b9250506020611ff685828601611ede565b9150509250929050565b60008060006060848603121561201557600080fd5b600061202386828701611ede565b935050602061203486828701611ede565b925050604061204586828701611f86565b9150509250925092565b6000806000806080858703121561206557600080fd5b600061207387828801611ede565b945050602061208487828801611ede565b935050604061209587828801611f86565b925050606085013567ffffffffffffffff8111156120b257600080fd5b6120be87828801611f32565b91505092959194509250565b600080604083850312156120dd57600080fd5b60006120eb85828601611ede565b92505060206120fc85828601611ef3565b9150509250929050565b6000806040838503121561211957600080fd5b600061212785828601611ede565b925050602083013567ffffffffffffffff81111561214457600080fd5b61215085828601611f5c565b9150509250929050565b6000806040838503121561216d57600080fd5b600061217b85828601611ede565b925050602061218c85828601611f86565b9150509250929050565b6000602082840312156121a857600080fd5b60006121b684828501611f08565b91505092915050565b6000602082840312156121d157600080fd5b60006121df84828501611f1d565b91505092915050565b6000602082840312156121fa57600080fd5b600082013567ffffffffffffffff81111561221457600080fd5b61222084828501611f5c565b91505092915050565b60006020828403121561223b57600080fd5b600061224984828501611f86565b91505092915050565b61225b816129d1565b82525050565b61226a816129e3565b82525050565b600061227b826128d3565b61228581856128e9565b9350612295818560208601612a54565b61229e81612c20565b840191505092915050565b60006122b4826128de565b6122be81856128fa565b93506122ce818560208601612a54565b6122d781612c20565b840191505092915050565b60006122ed826128de565b6122f7818561290b565b9350612307818560208601612a54565b80840191505092915050565b60006123206032836128fa565b915061232b82612c31565b604082019050919050565b60006123436026836128fa565b915061234e82612c80565b604082019050919050565b60006123666025836128fa565b915061237182612ccf565b604082019050919050565b6000612389601c836128fa565b915061239482612d1e565b602082019050919050565b60006123ac6024836128fa565b91506123b782612d47565b604082019050919050565b60006123cf6019836128fa565b91506123da82612d96565b602082019050919050565b60006123f26029836128fa565b91506123fd82612dbf565b604082019050919050565b6000612415602e836128fa565b915061242082612e0e565b604082019050919050565b6000612438603e836128fa565b915061244382612e5d565b604082019050919050565b600061245b6020836128fa565b915061246682612eac565b602082019050919050565b600061247e6020836128fa565b915061248982612ed5565b602082019050919050565b60006124a16018836128fa565b91506124ac82612efe565b602082019050919050565b60006124c46021836128fa565b91506124cf82612f27565b604082019050919050565b60006124e76013836128fa565b91506124f282612f76565b602082019050919050565b600061250a602e836128fa565b915061251582612f9f565b604082019050919050565b600061252d600f836128fa565b915061253882612fee565b602082019050919050565b61254c81612a3b565b82525050565b600061255e82846122e2565b915081905092915050565b600061257582856122e2565b915061258182846122e2565b91508190509392505050565b60006020820190506125a26000830184612252565b92915050565b60006080820190506125bd6000830187612252565b6125ca6020830186612252565b6125d76040830185612543565b81810360608301526125e98184612270565b905095945050505050565b60006020820190506126096000830184612261565b92915050565b6000602082019050818103600083015261262981846122a9565b905092915050565b6000602082019050818103600083015261264a81612313565b9050919050565b6000602082019050818103600083015261266a81612336565b9050919050565b6000602082019050818103600083015261268a81612359565b9050919050565b600060208201905081810360008301526126aa8161237c565b9050919050565b600060208201905081810360008301526126ca8161239f565b9050919050565b600060208201905081810360008301526126ea816123c2565b9050919050565b6000602082019050818103600083015261270a816123e5565b9050919050565b6000602082019050818103600083015261272a81612408565b9050919050565b6000602082019050818103600083015261274a8161242b565b9050919050565b6000602082019050818103600083015261276a8161244e565b9050919050565b6000602082019050818103600083015261278a81612471565b9050919050565b600060208201905081810360008301526127aa81612494565b9050919050565b600060208201905081810360008301526127ca816124b7565b9050919050565b600060208201905081810360008301526127ea816124da565b9050919050565b6000602082019050818103600083015261280a816124fd565b9050919050565b6000602082019050818103600083015261282a81612520565b9050919050565b60006020820190506128466000830184612543565b92915050565b6000612856612867565b90506128628282612ab9565b919050565b6000604051905090565b600067ffffffffffffffff82111561288c5761288b612bf1565b5b61289582612c20565b9050602081019050919050565b600067ffffffffffffffff8211156128bd576128bc612bf1565b5b6128c682612c20565b9050602081019050919050565b600081519050919050565b600081519050919050565b600082825260208201905092915050565b600082825260208201905092915050565b600081905092915050565b600061292182612a3b565b915061292c83612a3b565b9250827fffffffffffffffffffffffffffffffffffffffffffffffffffffffffffffffff0382111561296157612960612b64565b5b828201905092915050565b600061297782612a3b565b915061298283612a3b565b92508261299257612991612b93565b5b828204905092915050565b60006129a882612a3b565b91506129b383612a3b565b9250828210156129c6576129c5612b64565b5b828203905092915050565b60006129dc82612a1b565b9050919050565b60008115159050919050565b60007fffffffff0000000000000000000000000000000000000000000000000000000082169050919050565b600073ffffffffffffffffffffffffffffffffffffffff82169050919050565b6000819050919050565b82818337600083830152505050565b60005b83811015612a72578082015181840152602081019050612a57565b83811115612a81576000848401525b50505050565b60006002820490506001821680612a9f57607f821691505b60208210811415612ab357612ab2612bc2565b5b50919050565b612ac282612c20565b810181811067ffffffffffffffff82111715612ae157612ae0612bf1565b5b80604052505050565b6000612af582612a3b565b91507fffffffffffffffffffffffffffffffffffffffffffffffffffffffffffffffff821415612b2857612b27612b64565b5b600182019050919050565b6000612b3e82612a3b565b9150612b4983612a3b565b925082612b5957612b58612b93565b5b828206905092915050565b7f4e487b7100000000000000000000000000000000000000000000000000000000600052601160045260246000fd5b7f4e487b7100000000000000000000000000000000000000000000000000000000600052601260045260246000fd5b7f4e487b7100000000000000000000000000000000000000000000000000000000600052602260045260246000fd5b7f4e487b7100000000000000000000000000000000000000000000000000000000600052604160045260246000fd5b6000601f19601f8301169050919050565b7f4552433732313a207472616e7366657220746f206e6f6e20455243373231526560008201527f63656976657220696d706c656d656e7465720000000000000000000000000000602082015250565b7f4f776e61626c653a206e6577206f776e657220697320746865207a65726f206160008201527f6464726573730000000000000000000000000000000000000000000000000000602082015250565b7f4552433732313a207472616e736665722066726f6d20696e636f72726563742060008201527f6f776e6572000000000000000000000000000000000000000000000000000000602082015250565b7f4552433732313a20746f6b656e20616c7265616479206d696e74656400000000600082015250565b7f4552433732313a207472616e7366657220746f20746865207a65726f2061646460008201527f7265737300000000000000000000000000000000000000000000000000000000602082015250565b7f4552433732313a20617070726f766520746f2063616c6c657200000000000000600082015250565b7f4552433732313a2061646472657373207a65726f206973206e6f74206120766160008201527f6c6964206f776e65720000000000000000000000000000000000000000000000602082015250565b7f45524337323155524953746f726167653a2055524920736574206f66206e6f6e60008201527f6578697374656e7420746f6b656e000000000000000000000000000000000000602082015250565b7f4552433732313a20617070726f76652063616c6c6572206973206e6f7420746f60008201527f6b656e206f776e6572206e6f7220617070726f76656420666f7220616c6c0000602082015250565b7f4552433732313a206d696e7420746f20746865207a65726f2061646472657373600082015250565b7f4f776e61626c653a2063616c6c6572206973206e6f7420746865206f776e6572600082015250565b7f4552433732313a20696e76616c696420746f6b656e2049440000000000000000600082015250565b7f4552433732313a20617070726f76616c20746f2063757272656e74206f776e6560008201527f7200000000000000000000000000000000000000000000000000000000000000602082015250565b7f4e465420616c7265616479206d696e7465642100000000000000000000000000600082015250565b7f4552433732313a2063616c6c6572206973206e6f7420746f6b656e206f776e6560008201527f72206e6f7220617070726f766564000000000000000000000000000000000000602082015250565b7f4e65656420746f20706179207570210000000000000000000000000000000000600082015250565b613020816129d1565b811461302b57600080fd5b50565b613037816129e3565b811461304257600080fd5b50565b61304e816129ef565b811461305957600080fd5b50565b61306581612a3b565b811461307057600080fd5b5056fea26469706673582212204518818726de453d8bb5b96b72176f502a4a8546bd856629e69376c61bc2976864736f6c63430008040033",
  "linkReferences": {},
  "deployedLinkReferences": {}
}